:100000000C942A000C9403120C9436120C9469126E
:100010000C9447000C9447000C9447000C94470044
:100020000C9447000C9447000C9447000C94470034
:100030000C9447000C9447000C9447000C94470024
:100040000C94C1060C9447000C9447000C94470094
:100050000C94470011241FBECFE5D8E0DEBFCDBF12
:1000600011E0A0E6B0E0EAE2F9E302C005900D92EB
:10007000AE32B107D9F711E0AEE2B1E001C01D9296
:10008000A833B107E1F70E942C160C94931C0C9432
:100090000000EF92FF920F931F937B018C0120E0F1
:1000A00030E040E05FE40E94490388238CF0C801FF
:1000B000B70120E030E040E05FE40E94C1010E940F
:1000C000A9039B01AC01205030404040504806C07D
:1000D000C801B7010E94A9039B01AC01B901CA0183
:1000E0001F910F91FF90EF900895A0E0B0E0EBE733
:1000F000F0E00C945C1CDC012B01FA019C91923025
:1001000008F439C1EB018881823008F433C194309E
:1001100069F4843009F02FC111969C91119789815F
:10012000981709F428C1AAEFB0E025C1843009F47A
:1001300021C18230A9F4923009F01DC19A01AD01AC
:1001400088E0EA010990AE01E90109929E0181501F
:10015000C1F7E201898111969C918923818308C1AD
:10016000923009F407C112962D903C901397EB0141
:100170008A819B811496AD90BD90CD90DC901797AD
:10018000EC80FD800E811F819101281B390BB90184
:1001900037FF04C066277727621B730B6032710537
:1001A0000CF061C0121613066CF537014801062EDB
:1001B00004C096948794779467940A94D2F721E0C8
:1001C00030E040E050E004C0220F331F441F551FB1
:1001D0006A95D2F721503040404050402E213F21B7
:1001E00040235123211531054105510521F021E01E
:1001F00030E040E050E079018A01E628F72808293C
:1002000019293CC0232BD1F1260E371E350146019A
:10021000062E04C096948794779467940A94D2F734
:1002200021E030E040E050E004C0220F331F441FC3
:10023000551F6A95D2F721503040404050402A2146
:100240003B214C215D21211531054105510521F04E
:1002500021E030E040E050E059016A01A628B728CB
:10026000C828D9280BC0821593052CF01C01AA249C
:10027000BB24650103C0EE24FF24870111969C91E5
:10028000D20111968C91981709F445C0992339F041
:10029000A80197012A193B094C095D0906C0A6016E
:1002A00095012E193F09400B510B57FD08C01182D3
:1002B0003382228224833583468357831DC081E0A5
:1002C00081833382228288279927DC01821B930B4A
:1002D000A40BB50B84839583A683B7830DC0220F2F
:1002E000331F441F551F24833583468357838281E0
:1002F000938101979383828324813581468157813D
:10030000DA01C9010197A109B1098F5F9F4FAF4F72
:10031000BF4328F30BC0918333822282EA0CFB1C7B
:100320000C1D1D1DE482F5820683178383E0808304
:10033000248135814681578157FF1AC0C901AA27F8
:1003400097FDA095BA2F81709070A070B0705695EF
:10035000479537952795822B932BA42BB52B848318
:100360009583A683B7838281938101969383828349
:10037000DF0101C0D201CD01CDB7DEB7E2E10C94BF
:10038000781CA0E2B0E0E7ECF1E00C94681C698313
:100390007A838B839C832D833E834F835887E9E048
:1003A000EE2EF12CEC0EFD1ECE010196B7010E943F
:1003B000D2048E010F5E1F4FCE010596B8010E9438
:1003C000D2048A8991E089278A8BC701B801AE01DE
:1003D000475E5F4F0E9475000E94FD03A096E6E015
:1003E0000C94841CA0E2B0E0E8EFF1E00C94681CEF
:1003F00069837A838B839C832D833E834F835887C5
:10040000F9E0EF2EF12CEC0EFD1ECE010196B701A6
:100410000E94D2048E010F5E1F4FCE010596B801D7
:100420000E94D204C701B801AE01475E5F4F0E942F
:1004300075000E94FD03A096E6E00C94841CA0E2E7
:10044000B0E0E5E2F2E00C945C1C69837A838B8374
:100450009C832D833E834F835887CE010196BE0136
:10046000675F7F4F0E94D204CE010596BE016F5E8A
:100470007F4F0E94D2049985923088F0898982301A
:10048000C8F0943019F4823051F404C0843029F457
:10049000923081F48AEF90E0C6C0923049F420E0B7
:1004A0009A858A89981321E02A87CE010996BBC0D4
:1004B000823049F420E09A858A89981321E02A8BBA
:1004C000CE014196B0C02D843E844F8458886D88FB
:1004D0007E888F88988CEE24FF248701AA24BB2471
:1004E000650140E050E060E070E0E0E0F0E0C10174
:1004F00081709070892BE9F0E60CF71C081D191D1E
:100500009A01AB012A0D3B1D4C1D5D1D80E090E062
:10051000A0E0B0E0E614F7040805190520F481E036
:1005200090E0A0E0B0E0BA01A901480F591F6A1F8E
:100530007B1FAA0CBB1CCC1CDD1C97FE08C081E0F5
:1005400090E0A0E0B0E0A82AB92ACA2ADB2A3196B6
:10055000E032F10549F0660C771C881C991C569412
:10056000479437942794C3CFFA85EA892B893C892D
:100570008B859C85280F391F2E5F3F4F17C0CA01FE
:1005800081709070892B61F016950795F794E79428
:1005900080E090E0A0E0B0E8E82AF92A0A2B1B2BC3
:1005A00076956795579547952F5F3F4F77FDE7CF36
:1005B0000CC0440F551F661F771F17FD4160EE0CDE
:1005C000FF1C001F111F21503040403090E05907A0
:1005D00090E0690790E4790760F32B8F3C8FDB0193
:1005E000CA018F779070A070B07080349105A1051A
:1005F000B10561F447FD0AC0E114F10401051105DC
:1006000029F0405C5F4F6F4F7F4F40781A8EFE1786
:1006100011F081E08A8F4D8F5E8F6F8F78A383E01A
:10062000898FCE0149960E94FD03A096E2E10C94C9
:10063000781CA8E1B0E0EFE1F3E00C94681C69835A
:100640007A838B839C832D833E834F83588789E0F5
:10065000E82EF12CEC0EFD1ECE010196B7010E9492
:10066000D2048E010F5E1F4FCE010596B8010E9485
:10067000D2048985823040F08989823028F0C70110
:10068000B8010E944A0501C08FEF6896E6E00C941D
:10069000841CA8E1B0E0EFE4F3E00C94681C6983EB
:1006A0007A838B839C832D833E834F83588789E095
:1006B000E82EF12CEC0EFD1ECE010196B7010E9432
:1006C000D2048E010F5E1F4FCE010596B8010E9425
:1006D000D2048985823040F08989823028F0C701B0
:1006E000B8010E944A0501C08FEF6896E6E00C94BD
:1006F000841CA8E1B0E0EFE7F3E00C94681C698388
:100700007A838B839C832D833E834F83588789E034
:10071000E82EF12CEC0EFD1ECE010196B7010E94D1
:10072000D2048E010F5E1F4FCE010596B8010E94C4
:10073000D2048985823040F08989823028F0C7014F
:10074000B8010E944A0501C081E06896E6E00C9479
:10075000841CACE0B0E0EFEAF3E00C946C1C69831D
:100760007A838B839C83CE010196BE016B5F7F4FA2
:100770000E94D2048D81823061F1823050F1843048
:1007800021F48E81882351F12EC02F81388537FDC9
:1007900020C06E812F3131051CF06623F9F023C093
:1007A0008EE190E0821B930B29853A854B855C8511
:1007B00004C056954795379527958A95D2F76623B5
:1007C000B1F050954095309521953F4F4F4F5F4F79
:1007D0000EC020E030E040E050E009C02FEF3FEFD6
:1007E0004FEF5FE704C020E030E040E050E8B9019F
:1007F000CA012C96E2E00C94881CDF92EF92FF92E3
:100800000F931F93FC01E480F58006811781D1804E
:100810008081823048F480E090E0A0E1B0E0E82AF6
:10082000F92A0A2B1B2BA5C0843009F49FC0823003
:1008300021F4EE24FF24870105C0E114F104010531
:10084000110519F4E0E0F0E096C0628173819FEF3A
:10085000623879070CF05BC022E83FEF261B370BAC
:100860002A3131052CF020E030E040E050E02AC091
:10087000B801A701022E04C0769567955795479554
:100880000A94D2F781E090E0A0E0B0E004C0880FC5
:10089000991FAA1FBB1F2A95D2F70197A109B10979
:1008A0008E219F21A023B1230097A105B10521F03E
:1008B00081E090E0A0E0B0E09A01AB01282B392B59
:1008C0004A2B5B2BDA01C9018F779070A070B07052
:1008D00080349105A105B10539F427FF09C0205CDA
:1008E0003F4F4F4F5F4F04C0215C3F4F4F4F5F4F13
:1008F000E0E0F0E02030A0E03A07A0E04A07A0E402
:100900005A0710F0E1E0F0E079018A0127C0603871
:10091000710564F5FB01E158FF4FD801C7018F77DE
:100920009070A070B07080349105A105B10539F4C4
:10093000E7FE0DC080E490E0A0E0B0E004C08FE3EB
:1009400090E0A0E0B0E0E80EF91E0A1F1B1F17FFA1
:1009500005C016950795F794E794319687E01695AC
:100960000795F794E7948A95D1F705C0EE24FF2404
:100970008701EFEFF0E06E2F679566276795902F60
:100980009F77D794DD24D7948E2F8695492F462BB9
:10099000582F5D29B701CA011F910F91FF90EF9069
:1009A000DF900895FC01DB01408151812281622F9B
:1009B0006F7770E0221F2227221F9381892F880FD3
:1009C000822B282F30E0991F9927991F11969C930D
:1009D000119721153105A9F54115510561057105DD
:1009E00011F482E037C082E89FEF13969C938E93B8
:1009F00012979A01AB0167E0220F331F441F551F66
:100A00006A95D1F783E08C930DC0220F331F441FEA
:100A1000551F12968D919C911397019713969C9355
:100A20008E931297203080E0380780E0480780E4FA
:100A3000580758F314962D933D934D935C93179755
:100A400008952F3F310579F4411551056105710570
:100A500019F484E08C93089564FF03C081E08C93C3
:100A600012C01C9210C02F57304013963C932E9307
:100A7000129783E08C9387E0440F551F661F771F02
:100A80008A95D1F7706414964D935D936D937C9322
:100A9000179708951F93DC01FB019C91923008F495
:100AA00047C08081823008F443C0943051F41196DD
:100AB0001C91843099F58181682F70E0611B710968
:100AC0003FC0843021F0923031F48230B9F181811D
:100AD000882389F12DC011961C9111978230F1F075
:100AE00081811817D9F412962D913C911397828128
:100AF00093818217930794F028173907BCF0149656
:100B00008D919D910D90BC91A02D248135814681C0
:100B10005781281739074A075B0718F4112341F05A
:100B20000AC082179307A407B50740F4112319F0F0
:100B300061E070E005C06FEF7FEF02C060E070E041
:100B4000CB011F910895DF93CF93CDB7DEB7A7E216
:100B5000B0E0E7E2F0E0808180648C93A7E2B0E04F
:100B6000E7E2F0E080818F778C93A7E2B0E0E7E2E4
:100B7000F0E0808180628C93A6E2B0E0E6E2F0E0F3
:100B800080818F7D8C93A6E2B0E0E6E2F0E0808188
:100B9000877F8C93A6E2B0E0E6E2F0E08081887F78
:100BA0008C93A6E2B0E0E6E2F0E0808187608C936F
:100BB000A6E2B0E0E6E2F0E0808180688C93CF911D
:100BC000DF910895DF93CF93CDB7DEB728970FB6A7
:100BD000F894DEBF0FBECDBF8E8378876F831D82F2
:100BE0008F819885009709F46BC080910201843051
:100BF00009F063C019821A821B821C8285E08093EF
:100C00000201A7E2B0E0E7E2F0E08081807E8C9311
:100C1000A7E2B0E0E7E2F0E090818E81892B8C932F
:100C2000A6E2B0E0E6E2F0E0808180648C930BC045
:100C300089819A81AB81BC810196A11DB11D8983F7
:100C40009A83AB83BC83E6E2F0E0808182958F706B
:100C5000882F90E081709070009761F489819A816B
:100C6000AB81BC81803523EC920720E0A20720E015
:100C7000B207F0F289819A81AB81BC81803523EC87
:100C8000920720E0A20720E0B20718F083E08D83EE
:100C900019C0A6E2B0E0E6E2F0E0808180618C93CA
:100CA000E5E2F0E08081882F90E0EF81F885918384
:100CB000808384E08093020105C086E08D8302C0BA
:100CC00082E08D838D8128960FB6F894DEBF0FBE2B
:100CD000CDBFCF91DF910895DF93CF9300D000D0A7
:100CE00000D0CDB7DEB78A837C836B835E834D8370
:100CF00019828B819C810097C1F18D819E81009723
:100D0000A1F180910201843069F585E080930201B0
:100D10008B819C8190932F0180932E018D819E81E8
:100D20009093310180933001A7E2B0E0E7E2F0E078
:100D30008081807E8C93A7E2B0E0E7E2F0E09081D2
:100D40008A81892B8C93A6E2B0E0E6E2F0E0808114
:100D500080648C93A6E2B0E0E6E2F0E080818860F7
:100D60008C9305C086E0898302C082E089838981F3
:100D700026960FB6F894DEBF0FBECDBFCF91DF91A0
:100D800008951F920F920FB60F9211242F933F9345
:100D90004F935F936F937F938F939F93AF93BF9383
:100DA000EF93FF93DF93CF93CDB7DEB780912E0102
:100DB00090912F01009759F0A0912E01B0912F0131
:100DC000E5E2F0E08081882F90E08D939C93A6E28D
:100DD000B0E0E6E2F0E08081877F8C9384E080934E
:100DE00002018091300190913101009729F0E0914A
:100DF0003001F09131010995CF91DF91FF91EF9191
:100E0000BF91AF919F918F917F916F915F914F9122
:100E10003F912F910F900FBE0F901F901895DF9369
:100E2000CF93CDB7DEB72E970FB6F894DEBF0FBEC7
:100E3000CDBF80E062E041E00E94400D80E090E0A4
:100E4000A0E0B0E48B879C87AD87BE876B857C85EF
:100E50008D859E8520E030E04AE755E40E941F0220
:100E6000DC01CB018F839887A987BA876F8178854A
:100E700089859A8520E030E040E85FE30E947903AD
:100E800088232CF481E090E09E838D833FC06F81A6
:100E9000788589859A8520E03FEF4FE757E40E94E7
:100EA000190318164CF56B857C858D859E8520E091
:100EB00030E040E251E40E941F02DC01CB01BC01A2
:100EC000CD010E944900DC01CB019E838D830FC0C0
:100ED00080E991E09C838B838B819C810197F1F762
:100EE0009C838B838D819E8101979E838D838D81D1
:100EF0009E81009769F714C06F81788589859A85EE
:100F00000E944900DC01CB019E838D838D819E81EF
:100F10009A83898389819A810197F1F79A838983DA
:100F200080E062E040E00E94400D2E960FB6F894FB
:100F3000DEBF0FBECDBFCF91DF910895DF93CF937A
:100F40000F92CDB7DEB789838981982F917080E0A9
:100F500063E0492F0E94400D89818695982F9170FA
:100F600080E064E0492F0E94400D89818695869536
:100F7000982F917080E065E0492F0E94400D898193
:100F8000869586958695982F917080E066E0492F2A
:100F90000E94400D0F90CF91DF910895DF93CF9382
:100FA0000F92CDB7DEB7898380E061E040E00E9418
:100FB000400D898182958F700E949E070E940F07C5
:100FC00089810E949E070E940F070F90CF91DF91A9
:100FD0000895DF93CF930F92CDB7DEB7898380E07A
:100FE00061E041E00E94400D898182958F700E94EE
:100FF0009E070E940F0789810E949E070E940F078B
:101000000F90CF91DF910895DF93CF93CDB7DEB7E7
:101010002E970FB6F894DEBF0FBECDBF80E090E0F4
:10102000A0E2B2E48B879C87AD87BE876B857C8509
:101030008D859E8520E030E04AE755E40E941F023E
:10104000DC01CB018F839887A987BA876F81788568
:1010500089859A8520E030E040E85FE30E947903CB
:1010600088232CF481E090E09E838D833FC06F81C4
:10107000788589859A8520E03FEF4FE757E40E9405
:10108000190318164CF56B857C858D859E8520E0AF
:1010900030E040E251E40E941F02DC01CB01BC01C0
:1010A000CD010E944900DC01CB019E838D830FC0DE
:1010B00080E991E09C838B838B819C810197F1F780
:1010C0009C838B838D819E8101979E838D838D81EF
:1010D0009E81009769F714C06F81788589859A850C
:1010E0000E944900DC01CB019E838D838D819E810E
:1010F0009A83898389819A810197F1F79A838983F9
:1011000082E00E949E070E940F0782E00E949E07D5
:101110000E940F0788E00E949E070E940F078CE044
:101120000E94CE0781E00E94CE072E960FB6F8945B
:10113000DEBF0FBECDBFCF91DF910895DF93CF9378
:1011400000D000D0CDB7DEB79C838B831A828B8111
:101150009C810097E1F019820EC08981282F30E030
:101160008B819C81FC01E20FF31F80810E94E907C3
:1011700089818F5F89838981282F30E08B819C81D1
:10118000FC01E20FF31F8081882339F702C082E05F
:101190008A838A810F900F900F900F90CF91DF91EB
:1011A0000895DF93CF93CDB7DEB761970FB6F8946C
:1011B000DEBF0FBECDBF6E877F87888B998B1A826B
:1011C0008E859F85A889B9890097A105B10521F46D
:1011D00080E30E94E90769C08E859F85A889B98947
:1011E000BB230CF043C08DE20E94E9078E859F85EA
:1011F000A889B989B095A095909581959F4FAF4FDB
:10120000BF4F8E879F87A88BB98B30C08E859F85F7
:10121000A889B9892AE030E040E050E0BC01CD0166
:101220000E941F1CDC01CB018B838E859F85A889C2
:10123000B9892AE030E040E050E0BC01CD010E94D5
:101240001F1CDA01C9018E879F87A88BB98B8A8101
:10125000282F30E08B81482F405DCE010496FC01A1
:10126000E20FF31F40838A818F5F8A838E859F857B
:10127000A889B9890097A105B10541F68A818150F5
:10128000898310C08981282F332727FD3095CE010F
:101290000496FC01E20FF31F80810E94E907898117
:1012A00081508983898188236CF761960FB6F89401
:1012B000DEBF0FBECDBFCF91DF910895DF93CF93F7
:1012C00000D00F92CDB7DEB78A836B838B818823E2
:1012D00019F48A81898306C08B81813019F48A814F
:1012E000805C898389818068898389810E94CE0797
:1012F0000F900F900F90CF91DF910895DF93CF93D0
:10130000CDB7DEB727970FB6F894DEBF0FBECDBFBF
:101310009C838B836D834E832F838D81882F90E0F8
:10132000880F991F880F991F880F991F8A838A81B8
:1013300080648A838A810E94CE0719820EC08981C7
:10134000282F30E08B819C81FC01E20FF31F80810C
:101350000E94E90789818F5F89838981883078F3CA
:101360008E816F810E945E098D810E94E907279618
:101370000FB6F894DEBF0FBECDBFCF91DF910895B9
:10138000DF93CF93CDB7DEB763970FB6F894DEBF88
:101390000FBECDBF688B798B8A8B9B8B198220C047
:1013A0008981482F552747FD50958981282F33275C
:1013B00027FD309588899989AA89BB8904C0B5958C
:1013C000A795979587952A95D2F7282F2170CE015A
:1013D0000296FC01E40FF51F208389818F5F8983CA
:1013E00089818E30ECF288899989AA89BB89BC01F0
:1013F000CD010E94D10880E690E00E949E0880E026
:1014000061E00E945E098CE690E00E949E088DE0FB
:10141000898316C08981282F332727FD3095CE0177
:101420000296FC01E20FF31F8081882F90E0A0E07C
:10143000B0E0BC01CD010E94D1088981815089832F
:10144000898188233CF763960FB6F894DEBF0FBE00
:10145000CDBFCF91DF9108950F931F93DF93CF936B
:10146000CDB7DEB769970FB6F894DEBF0FBECDBF1C
:101470006C8B7D8B8E8B9F8B8C899D89AE89BF8970
:1014800089839A83AB83BC838DE08D83CBC08C89A9
:101490009D89AE89BF8920E130E040E050E0BC0189
:1014A000CD010E941F1CDC01CB019C01AD018C8988
:1014B0009D89AE89BF89281739074A075B0701F55F
:1014C0008D81282F332727FD3095CE010696FC010C
:1014D000E20FF31F10828D8181508D838C899D894D
:1014E000AE89BF8920E130E040E050E0BC01CD0191
:1014F0000E941F1CDA01C9018C8B9D8BAE8BBF8BA8
:101500008C899D89AE89BF898F3F9105A105B10561
:1015100011F00CF04CC08D81082F112707FD10959C
:101520008C899D89AE89BF8920E130E040E050E0A0
:10153000BC01CD010E941F1CDC01CB01282FCE0174
:101540000696FC01E00FF11F20838D81992787FD0E
:1015500090958C01015010408C899D89AE89BF897E
:1015600020E130E040E050E0BC01CD010E941F1CB2
:10157000DA01C901282FCE010696FC01E00FF11F08
:1015800020838D8182508D838C899D89AE89BF890E
:1015900020E130E040E050E0BC01CD010E941F1C82
:1015A000DA01C9018C8B9D8BAE8BBF8B3BC08C89C4
:1015B0009D89AE89BF89803121E0920720E0A20792
:1015C00020E0B2077CF18D81082F112707FD1095CF
:1015D0008C899D89AE89BF8920E130E040E050E0F0
:1015E000BC01CD010E941F1CDC01CB01282FCE01C4
:1015F0000696FC01E00FF11F20838C899D89AE893E
:10160000BF8920E130E040E050E0BC01CD010E9404
:101610001F1CDA01C9018C8B9D8BAE8BBF8B8D811A
:1016200081508D838D8188230CF031CF89819A81FF
:10163000AB81BC81BC01CD010E94D1088FE690E056
:101640000E949E0880E061E00E945E0988E790E0C9
:101650000E949E081D826FC08D81282F332727FD91
:101660003095CE010696FC01E20FF31F80818A308F
:10167000A0F48D81282F332727FD3095CE010696C3
:10168000FC01E20FF31F8081882F90E0A0E0B0E022
:10169000BC01CD010E94D1084BC08D81282F33277A
:1016A00027FD3095CE010696FC01E20FF31F8081E5
:1016B000282F30E0398F288F888D998D8C309105B7
:1016C00041F1288D398D2D3031055CF4888D998D4F
:1016D0008A309105B1F0288D398D2B303105A9F074
:1016E00027C0888D998D8E309105D9F0288D398D40
:1016F0002E30310594F0888D998D8F309105A9F0A9
:1017000017C081E40E94E90713C082E40E94E90740
:101710000FC083E40E94E9070BC084E40E94E9073C
:1017200007C085E40E94E90703C086E40E94E90738
:101730008D818F5F8D838D818E300CF48DCF699676
:101740000FB6F894DEBF0FBECDBFCF91DF911F91D2
:101750000F910895DF93CF9300D00F92CDB7DEB7EE
:101760009B838A8319828A819B810097B1F01982B9
:10177000EA81FB818081EA81FB819281692F40E0CF
:101780000E94400DEA81FB818081EA81FB81918189
:10179000692F41E00E94400D02C082E08983898167
:1017A0000F900F900F90CF91DF910895DF93CF931B
:1017B00000D00F92CDB7DEB79B838A8319828A81CE
:1017C0009B810097B1F01982EA81FB818081EA81D7
:1017D000FB819181692F40E00E94400DEA81FB81ED
:1017E0008081EA81FB819281692F41E00E94400D56
:1017F00002C082E0898389810F900F900F90CF9172
:10180000DF910895DF93CF9300D00F92CDB7DEB76D
:101810009B838A8319828A819B810097B1F0198208
:10182000EA81FB818081EA81FB819181692F40E01F
:101830000E94400DEA81FB818081EA81FB819281D7
:10184000692F40E00E94400D02C082E089838981B7
:101850000F900F900F90CF91DF910895DF93CF936A
:10186000CDB7DEB728970FB6F894DEBF0FBECDBF59
:101870008A836B834C8319828B81883008F0F4C093
:101880008C81882309F077C08A81282F30E038873F
:101890002F838F8198858130910559F12F8138856B
:1018A000223031052CF48F819885009769F060C053
:1018B0002F8138852230310589F18F8198858330D9
:1018C000910509F440C054C0AAE3B0E0EAE3F0E0B7
:1018D0008081482F8B81282F30E081E090E0022E1C
:1018E00002C0880F991F0A94E2F7809584238C9395
:1018F000BDC0A7E3B0E0E7E3F0E08081482F8B8133
:10190000282F30E081E090E0022E02C0880F991F5E
:101910000A94E2F7809584238C93A8C0A4E3B0E0F6
:10192000E4E3F0E08081482F8B81282F30E081E0D4
:1019300090E0022E02C0880F991F0A94E2F780956A
:1019400084238C9393C0A1E3B0E0E1E3F0E08081D5
:10195000482F8B81282F30E081E090E0022E02C0DA
:10196000880F991F0A94E2F7809584238C937EC098
:1019700081E089837BC08C81813009F072C08A81CB
:10198000282F30E03E832D838D819E81813091050B
:1019900049F12D813E81223031052CF48D819E81CB
:1019A000009761F05BC02D813E812230310571F1DD
:1019B0008D819E8183309105E9F150C0AAE3B0E0AA
:1019C000EAE3F0E08081482F8B81282F30E081E02E
:1019D00090E0022E02C0880F991F0A94E2F7842B30
:1019E0008C9344C0A7E3B0E0E7E3F0E08081482FA8
:1019F0008B81282F30E081E090E0022E02C0880F1A
:101A0000991F0A94E2F7842B8C9330C0A4E3B0E0D2
:101A1000E4E3F0E08081482F8B81282F30E081E0E3
:101A200090E0022E02C0880F991F0A94E2F7842BDF
:101A30008C931CC0A1E3B0E0E1E3F0E08081482F8B
:101A40008B81282F30E081E090E0022E02C0880FC9
:101A5000991F0A94E2F7842B8C9308C081E0898354
:101A600005C081E0898302C081E08983898128964D
:101A70000FB6F894DEBF0FBECDBFCF91DF910895B2
:101A8000DF93CF93CDB7DEB728970FB6F894DEBFBC
:101A90000FBECDBF8A836B834C8319828B818830C4
:101AA00008F0F4C08C81813009F072C08A81282F3F
:101AB00030E038872F838F8198858130910549F1F7
:101AC0002F813885223031052CF48F81988500973D
:101AD00061F05BC02F8138852230310571F18F8133
:101AE000988583309105E9F150C0ABE3B0E0EBE3BA
:101AF000F0E08081482F8B81282F30E081E090E05A
:101B0000022E02C0880F991F0A94E2F7842B8C934F
:101B1000BFC0A8E3B0E0E8E3F0E08081482F8B810C
:101B2000282F30E081E090E0022E02C0880F991F3C
:101B30000A94E2F7842B8C93ABC0A5E3B0E0E5E315
:101B4000F0E08081482F8B81282F30E081E090E009
:101B5000022E02C0880F991F0A94E2F7842B8C93FF
:101B600097C0A2E3B0E0E2E3F0E08081482F8B81F0
:101B7000282F30E081E090E0022E02C0880F991FEC
:101B80000A94E2F7842B8C9383C081E0898380C020
:101B90008C81882309F077C08A81282F30E03E832A
:101BA0002D838D819E818130910559F12D813E815A
:101BB000223031052CF48D819E81009769F060C040
:101BC0002D813E812230310589F18D819E818330C6
:101BD000910509F440C054C0ABE3B0E0EBE3F0E0A2
:101BE0008081482F8B81282F30E081E090E0022E09
:101BF00002C0880F991F0A94E2F7809584238C9382
:101C000047C0A8E3B0E0E8E3F0E08081482F8B8193
:101C1000282F30E081E090E0022E02C0880F991F4B
:101C20000A94E2F7809584238C9332C0A5E3B0E058
:101C3000E5E3F0E08081482F8B81282F30E081E0C0
:101C400090E0022E02C0880F991F0A94E2F7809557
:101C500084238C931DC0A2E3B0E0E2E3F0E0808136
:101C6000482F8B81282F30E081E090E0022E02C0C7
:101C7000880F991F0A94E2F7809584238C9308C0FB
:101C800081E0898305C081E0898302C081E0898386
:101C9000898128960FB6F894DEBF0FBECDBFCF91D5
:101CA000DF910895DF93CF93CDB7DEB727970FB6B7
:101CB000F894DEBF0FBECDBF8A836B835D834C83F8
:101CC00019828C819D81009709F47BC08B818830BB
:101CD00008F074C08A81282F30E03F832E834E8124
:101CE0005F814130510559F18E819F81823091058C
:101CF00034F42E813F812115310569F05CC04E819D
:101D00005F814230510579F18E819F818330910549
:101D100009F43DC050C0E9E3F0E08081282F30E0B5
:101D20008B81882F90E0A90102C0559547958A952F
:101D3000E2F7CA018170EC81FD81808344C0E6E353
:101D4000F0E08081282F30E08B81882F90E0A9017E
:101D500002C0559547958A95E2F7CA018170EC81DA
:101D6000FD81808330C0E3E3F0E08081282F30E004
:101D70008B81882F90E0A90102C0559547958A95DF
:101D8000E2F7CA018170EC81FD8180831CC0E0E331
:101D9000F0E08081282F30E08B81882F90E0A9012E
:101DA00002C0559547958A95E2F7CA018170EC818A
:101DB000FD81808308C081E0898305C081E089833B
:101DC00002C082E08983898127960FB6F894DEBF2E
:101DD0000FBECDBFCF91DF910895DF93CF9300D099
:101DE00000D00F92CDB7DEB78A836B8319828A81C8
:101DF000282F30E03D832C838C819D81813091059B
:101E0000D1F02C813D81223031052CF48C819D81D3
:101E1000009761F01FC02C813D812230310581F097
:101E20008C819D818330910581F014C0EAE3F0E05C
:101E30008B81808311C0E7E3F0E08B8180830CC04D
:101E4000E4E3F0E08B81808307C0E1E3F0E08B8185
:101E5000808302C081E0898389810F900F900F9069
:101E60000F900F90CF91DF910895DF93CF9300D023
:101E700000D00F92CDB7DEB78A836B8319828A8137
:101E8000282F30E03D832C838C819D81813091050A
:101E9000D1F02C813D81223031052CF48C819D8143
:101EA000009761F01FC02C813D812230310581F007
:101EB0008C819D818330910581F014C0EBE3F0E0CB
:101EC0008B81808311C0E8E3F0E08B8180830CC0BC
:101ED000E5E3F0E08B81808307C0E2E3F0E08B81F3
:101EE000808302C081E0898389810F900F900F90D9
:101EF0000F900F90CF91DF910895DF93CF9300D093
:101F000000D000D0CDB7DEB78B836C831A828C8172
:101F1000883008F073C019828B81282F30E03E830F
:101F20002D838D819E818130910549F12D813E81E6
:101F3000223031052CF48D819E81009761F05BC0C9
:101F40002D813E812230310571F18D819E8183305A
:101F50009105E9F150C0ABE3B0E0EBE3F0E0808144
:101F6000482F8C81282F30E081E090E0022E02C0C3
:101F7000880F991F0A94E2F784278C9341C0A8E345
:101F8000B0E0E8E3F0E08081482F8C81282F30E03A
:101F900081E090E0022E02C0880F991F0A94E2F7B8
:101FA00084278C932DC0A5E3B0E0E5E3F0E08081C9
:101FB000482F8C81282F30E081E090E0022E02C073
:101FC000880F991F0A94E2F784278C9319C0A2E323
:101FD000B0E0E2E3F0E08081482F8C81282F30E0F0
:101FE00081E090E0022E02C0880F991F0A94E2F768
:101FF00084278C9305C081E0898302C081E08A83B5
:102000008A8126960FB6F894DEBF0FBECDBFCF9162
:10201000DF910895DF93CF93CDB7DEB7A5E5B0E0AC
:10202000E5E5F0E080818E7F8C93A5E5B0E0E5E505
:10203000F0E0808182608C93ABE5B0E0EBE5F0E00E
:1020400080818F7B8C93CF91DF910895DF93CF9325
:10205000CDB7DEB7A5E5B0E0E5E5F0E080818B7FA8
:102060008C93A5E5B0E0E5E5F0E0808188608C9395
:10207000ABE5B0E0EBE5F0E080818F778C93CF911A
:10208000DF910895DF93CF93CDB7DEB7A4E5B0E03D
:10209000E4E5F0E080818F7B8C93ABE5B0E0EBE58D
:1020A000F0E0808180628C93CF91DF910895DF937F
:1020B000CF93CDB7DEB72B970FB6F894DEBF0FBE28
:1020C000CDBF8A836B8319828A81282F30E03B87BA
:1020D0002A878A859B858130910509F46AC02A8503
:1020E0003B852230310509F4C3C08A859B85009762
:1020F00009F0E0C08B81282F30E039872887888558
:1021000099858230910529F128853985233031055B
:1021100034F4888599858130910561F047C0288520
:1021200039852330310521F18885998584309105E1
:1021300071F13CC0A5E5B0E0E5E5F0E080818E7F7F
:102140008C93A5E5B0E0E5E5F0E080818D7F8C9390
:10215000B1C0A5E5B0E0E5E5F0E0808181608C9359
:10216000A5E5B0E0E5E5F0E080818D7F8C93A2C02D
:10217000A5E5B0E0E5E5F0E080818E7F8C93A5E5F4
:10218000B0E0E5E5F0E0808182608C9393C0A5E546
:10219000B0E0E5E5F0E0808181608C93A5E5B0E0FA
:1021A000E5E5F0E0808182608C9384C081E08983E2
:1021B00081C08B81282F30E03F832E838E819F81C9
:1021C0008230910529F12E813F812330310534F48D
:1021D0008E819F818130910561F047C02E813F81C2
:1021E0002330310521F18E819F818430910571F179
:1021F0003CC0A5E5B0E0E5E5F0E080818B7F8C9305
:10220000A5E5B0E0E5E5F0E08081877F8C9352C0E2
:10221000A5E5B0E0E5E5F0E0808184608C93A5E57C
:10222000B0E0E5E5F0E08081877F8C9343C0A5E5D1
:10223000B0E0E5E5F0E080818B7F8C93A5E5B0E030
:10224000E5E5F0E0808188608C9334C0A5E5B0E0DE
:10225000E5E5F0E0808184608C93A5E5B0E0E5E5FC
:10226000F0E0808188608C9325C081E0898322C062
:102270008B81282F30E03D832C838C819D818130A0
:10228000910531F02C813D812230310549F010C09B
:10229000A4E5B0E0E4E5F0E080818F7B8C930AC098
:1022A000A4E5B0E0E4E5F0E0808180648C9302C0B6
:1022B00081E0898389812B960FB6F894DEBF0FBE2B
:1022C000CDBFCF91DF910895DF93CF9300D000D0A1
:1022D000CDB7DEB78A8319828A81282F30E03C830C
:1022E0002B838B819C818130910589F02B813C81EE
:1022F00022303105A1F08B819C810097C1F4ABE5C0
:10230000B0E0EBE5F0E0808180648C9312C0ABE537
:10231000B0E0EBE5F0E0808180688C930AC0ABE52B
:10232000B0E0EBE5F0E0808180628C9302C081E058
:10233000898389810F900F900F900F90CF91DF913B
:102340000895DF93CF9300D000D0CDB7DEB78A8356
:1023500019828A81282F30E03C832B838B819C81DA
:102360008130910589F02B813C8122303105A1F02B
:102370008B819C810097C1F4ABE5B0E0EBE5F0E028
:1023800080818F7B8C9312C0ABE5B0E0EBE5F0E091
:1023900080818F778C930AC0ABE5B0E0EBE5F0E08D
:1023A00080818F7D8C9302C081E0898389810F9029
:1023B0000F900F900F90CF91DF910895DF93CF93FF
:1023C00000D000D0CDB7DEB78A837C836B831982BF
:1023D0008B819C81009769F08A81882F90E0880F1B
:1023E000991FFC01EE5CFE4F8B819C819183808361
:1023F00002C082E0898389810F900F900F900F9027
:10240000CF91DF9108951F920F920FB60F92112472
:102410002F933F934F935F936F937F938F939F93EC
:10242000AF93BF93EF93FF93DF93CF93CDB7DEB717
:102430008091320190913301009729F0E0913201AF
:10244000F09133010995CF91DF91FF91EF91BF9109
:10245000AF919F918F917F916F915F914F913F913C
:102460002F910F900FBE0F901F9018951F920F92F3
:102470000FB60F9211242F933F934F935F936F9357
:102480007F938F939F93AF93BF93EF93FF93DF93CC
:10249000CF93CDB7DEB7809134019091350100978D
:1024A00029F0E0913401F09135010995CF91DF9148
:1024B000FF91EF91BF91AF919F918F917F916F911C
:1024C0005F914F913F912F910F900FBE0F901F90F2
:1024D00018951F920F920FB60F9211242F933F93CE
:1024E0004F935F936F937F938F939F93AF93BF931C
:1024F000EF93FF93DF93CF93CDB7DEB78091360193
:1025000090913701009729F0E0913601F091370161
:102510000995CF91DF91FF91EF91BF91AF919F917D
:102520008F917F916F915F914F913F912F910F907C
:102530000FBE0F901F901895DF93CF93CDB7DEB7E6
:102540007894CF91DF910895DF93CF93CDB7DEB725
:10255000F894CF91DF910895DF93CF9300D000D00E
:102560000F92CDB7DEB78FEF8B8319825EC0898162
:10257000882F90E0FC01E95EFE4F908183E0692F97
:1025800040E00E94400D1A823DC08A81882F90E071
:10259000FC01ED5EFE4F90819E012C5F3F4F81E07C
:1025A000692FA9010E94520E8C81882341F58A81EE
:1025B000482F50E08981282F30E0CA01880F991FE9
:1025C000880F991F820F931FFC01ED5FFE4F8081E2
:1025D0008B830FC08A81882F90E0FC01ED5EFE4F57
:1025E00090819E012C5F3F4F81E0692FA9010E94DD
:1025F000520E8C81882371F38B818D831CC08A815C
:102600008F5F8A838A81843008F4BFCF8981882FC5
:1026100090E0FC01E95EFE4F908183E0692F41E08C
:102620000E94400D89818F5F89838981843008F4FD
:102630009ECF8B818D838D810F900F900F900F9087
:102640000F90CF91DF910895DF93CF9300D0CDB756
:10265000DEB78A838A81898389810F900F90CF9119
:10266000DF910895DF93CF930F92CDB7DEB78983C3
:102670008981882F90E0A0E0B0E024EF31E040E0D5
:1026800050E0BC01CD010E94001CDC01CB01892F70
:102690009A2FAB2FBB270F90CF91DF910895DF9337
:1026A000CF93CDB7DEB7EAE3F0E08EE78083E7E3D0
:1026B000F0E01082E4E3F0E08FEF8083E1E3F0E00C
:1026C0008FE78083EBE3F0E01082E8E3F0E084EF53
:1026D0008083E5E3F0E01082E2E3F0E08CE78083C2
:1026E000CF91DF910895DF93CF9300D00F92CDB7B4
:1026F000DEB79B838A8319828A819B81009789F147
:10270000EA81FB818081882359F4EA81FB818381FE
:10271000EA81FB819481692F41E00E94400D1FC036
:10272000EA81FB818081813059F4EA81FB818381D8
:10273000EA81FB819481692F40E00E94400D0FC027
:10274000EA81FB818081823051F4EA81FB818381BF
:10275000EA81FB819481692F41E00E94400D19823A
:1027600002C082E0898389810F900F900F90CF91F2
:10277000DF910895DF93CF9300D00F92CDB7DEB7EE
:102780009B838A8319828A819B81009789F1EA81E0
:10279000FB818081882359F4EA81FB818381EA816E
:1027A000FB819481692F40E00E94400D1FC0EA81A7
:1027B000FB818081813059F4EA81FB818381EA8148
:1027C000FB819481692F41E00E94400D0FC0EA8196
:1027D000FB818081823051F4EA81FB818381EA812F
:1027E000FB819481692F40E00E94400D198202C054
:1027F00082E0898389810F900F900F90CF91DF91B4
:102800000895DF93CF9300D000D0CDB7DEB79B8380
:102810008A836C8319828A819B81009709F412C292
:10282000EA81FB818081882309F0AFC0EA81FB81C6
:102830003181EA81FB8122818C81882F90E0FC012B
:10284000E55EFE4F808181708095982F832F622FE7
:10285000492F0E94400DEA81FB812181EA81FB81A1
:102860008281382F3F5F8C81882F90E0FC01E55EEC
:10287000FE4F8081869581708095982F822F632FDF
:10288000492F0E94400DEA81FB812181EA81FB8171
:102890008281382F3E5F8C81882F90E0FC01E55EBD
:1028A000FE4F80818695869581708095982F822F26
:1028B000632F492F0E94400DEA81FB812181EA812B
:1028C000FB818281382F3D5F8C81882F90E0FC0155
:1028D000E55EFE4F80818695869586958170809510
:1028E000982F822F632F492F0E94400DEA81FB8190
:1028F0002181EA81FB818281382F3C5F8C81882F86
:1029000090E0FC01E55EFE4F808182958F708170C2
:102910008095982F822F632F492F0E94400DEA81C6
:10292000FB812181EA81FB818281382F3B5F8C8191
:10293000882F90E0FC01E55EFE4F808182958695B0
:10294000877081708095982F822F632F492F0E9466
:10295000400DEA81FB812181EA81FB818281382F50
:102960003A5F8C81882F90E0FC01E55EFE4F80810C
:10297000829586958695837081708095982F822F99
:10298000632F492F0E94400D5BC1EA81FB8180814A
:10299000813009F0A8C0EA81FB812181EA81FB81B5
:1029A00032818C81882F90E0FC01E55EFE4F8081B2
:1029B000982F9170822F632F492F0E94400DEA813A
:1029C000FB812181EA81FB818281382F3F5F8C81ED
:1029D000882F90E0FC01E55EFE4F80818695982F60
:1029E0009170822F632F492F0E94400DEA81FB8155
:1029F0002181EA81FB818281382F3E5F8C81882F83
:102A000090E0FC01E55EFE4F808186958695982FCB
:102A10009170822F632F492F0E94400DEA81FB8124
:102A20002181EA81FB818281382F3D5F8C81882F53
:102A300090E0FC01E55EFE4F808186958695869547
:102A4000982F9170822F632F492F0E94400DEA81A9
:102A5000FB812181EA81FB818281382F3C5F8C815F
:102A6000882F90E0FC01E55EFE4F808182958F709B
:102A7000982F9170822F632F492F0E94400DEA8179
:102A8000FB812181EA81FB818281382F3B5F8C8130
:102A9000882F90E0FC01E55EFE4F8081829586954F
:102AA0008770982F9170822F632F492F0E94400DBD
:102AB000EA81FB812181EA81FB818281382F3A5FA3
:102AC0008C81882F90E0FC01E55EFE4F808182952D
:102AD000869586958370982F9170822F632F492F4A
:102AE0000E94400DADC0EA81FB818081823009F0F7
:102AF000A7C0EA81FB812181EA81FB8132818C813F
:102B0000882F90E0FC01E55EFE4F8081982F917048
:102B1000822F632F492F0E94400DEA81FB81218182
:102B2000EA81FB818281382F3F5F8C81882F90E082
:102B3000FC01E55EFE4F80818695982F9170822F73
:102B4000632F492F0E94400DEA81FB812181EA8198
:102B5000FB818281382F3E5F8C81882F90E0FC01C1
:102B6000E55EFE4F808186958695982F9170822F25
:102B7000632F492F0E94400DEA81FB812181EA8168
:102B8000FB818281382F3D5F8C81882F90E0FC0192
:102B9000E55EFE4F8081869586958695982F91708B
:102BA000822F632F492F0E94400DEA81FB812181F2
:102BB000EA81FB818281382F3C5F8C81882F90E0F5
:102BC000FC01E55EFE4F808182958F70982F917099
:102BD000822F632F492F0E94400DEA81FB812181C2
:102BE000EA81FB818281382F3B5F8C81882F90E0C6
:102BF000FC01E55EFE4F8081829586958770982F57
:102C00009170822F632F492F0E94400DEA81FB8132
:102C10002181EA81FB818281382F3A5F8C81882F64
:102C200090E0FC01E55EFE4F808182958695869559
:102C30008370982F9170822F632F492F0E94400D2F
:102C4000198202C082E0898389810F900F900F90D2
:102C50000F90CF91DF910895DF93CF93CDB7DEB77B
:102C60000E944F130E94A3050E9404080E94421074
:102C70002DE43BE182E0B9010E94DE110E949C122A
:102C80000E9449160E94D9160E947E1A0E94BF1AFD
:102C9000FBCFDF93CF93CDB7DEB72E970FB6F89467
:102CA000DEBF0FBECDBF82E060E00E945E098BE711
:102CB00090E00E949E0880E090E0AFEAB4E48B8749
:102CC0009C87AD87BE876B857C858D859E8520E042
:102CD00030E04AE755E40E941F02DC01CB018F83FC
:102CE0009887A987BA876F81788589859A8520E03A
:102CF00030E040E85FE30E94790388232CF481E010
:102D000090E09E838D833FC06F81788589859A8509
:102D100020E03FEF4FE757E40E94190318164CF5E7
:102D20006B857C858D859E8520E030E040E251E416
:102D30000E941F02DC01CB01BC01CD010E944900B1
:102D4000DC01CB019E838D830FC080E991E09C83E1
:102D50008B838B819C810197F1F79C838B838D8181
:102D60009E8101979E838D838D819E81009769F757
:102D700014C06F81788589859A850E944900DC019D
:102D8000CB019E838D838D819E819A8389838981E6
:102D90009A810197F1F79A83898381E00E94CE0797
:102DA0002E960FB6F894DEBF0FBECDBFCF91DF9148
:102DB00008950F931F93DF93CF93CDB7DEB7C05520
:102DC000D0400FB6F894DEBF0FBECDBFFE01E85B6A
:102DD000FF4F1082FE01E95BFF4F8FEF808388E891
:102DE00090E00E949E0880E061E00E945E09FE0182
:102DF000E85BFF4F108237C00E94AC12FE01E95B16
:102E0000FF4F8083FE01E95BFF4F80818F3FA1F37D
:102E1000FE01E85BFF4F8081282F30E0CE01875B09
:102E20009F4FDC01A20FB31FFE01E95BFF4F8081C2
:102E30008C93FE01E95BFF4F8081882F90E0A0E03A
:102E4000B0E0BC01CD010E94D108FE01E95BFF4F5B
:102E50008FEF8083DE01A85BBF4FFE01E85BFF4F71
:102E600080818F5F8C93FE01E85BFF4F808184300F
:102E700048F281E00E94CE0780912A0190912B01B7
:102E80000E94BA1380912A0190912B0120912C016C
:102E9000622F0E94011483E990E00E949E0880E066
:102EA00061E00E945E09FE01E85BFF4F1082C6C030
:102EB0000E94AC12FE01E95BFF4F8083FE01E95BDB
:102EC000FF4F80818F3FA1F3FE01E85BFF4F8081C0
:102ED000282F30E0CE01835B9F4FDC01A20FB31F90
:102EE000FE01E95BFF4F80818C93FE01E95BFF4FA0
:102EF0008081882F90E0A0E0B0E0BC01CD010E946D
:102F0000D108FE01ED5BFF4F80E090E0A8ECB2E459
:102F100080839183A283B3838E01015C1F4FFE01E6
:102F2000ED5BFF4F608171818281938120E030E011
:102F30004AE755E40E941F02DC01CB01F8018083BF
:102F40009183A283B383FE01FF96608171818281A8
:102F5000938120E030E040E85FE30E94790388231A
:102F60002CF481E090E09EAF8DAF46C0FE01FF964D
:102F7000608171818281938120E03FEF4FE757E4C8
:102F80000E941903181664F5FE01ED5BFF4F608186
:102F900071818281938120E030E040E251E40E941F
:102FA0001F02DC01CB01BC01CD010E944900DC0104
:102FB000CB019EAF8DAF0FC080E991E09CAF8BAF8E
:102FC0008BAD9CAD0197F1F79CAF8BAF8DAD9EADF6
:102FD00001979EAF8DAF8DAD9EAD009769F716C07E
:102FE000FE01FF9660817181828193810E94490078
:102FF000DC01CB019EAF8DAF8DAD9EAD9AAF89AF99
:1030000089AD9AAD0197F1F79AAF89AFFE01E85B00
:10301000FF4F808161E00E945E098AE20E94E90719
:10302000FE01E95BFF4F8FEF8083DE01A85BBF4F9E
:10303000FE01E85BFF4F80818F5F8C93FE01E85BB0
:10304000FF4F8081843008F439CFFE01E35BFF4FEE
:103050009081FE01E75BFF4F8381981721F5FE0108
:10306000E35BFF4F9181FE01E75BFF4F8281981781
:10307000D1F4FE01E35BFF4F9281FE01E75BFF4F5E
:103080008181981781F4FE01E35BFF4F9381FE017C
:10309000E75BFF4F8081981731F481E00E94CE07F3
:1030A0000E943A1B1FC281E00E94CE0784EA90E092
:1030B0000E949E0880E061E00E945E0982EB90E041
:1030C0000E949E0883E060E041E00E94400D80E0A5
:1030D00090E0A8E4B3E48DAB9EABAFABB8AF6DA905
:1030E0007EA98FA998AD20E030E04AE755E40E9420
:1030F0001F02DC01CB0189AB9AABABABBCAB69A9BE
:103100007AA98BA99CA920E030E040E85FE30E9407
:10311000790388232CF481E090E098AB8FA73FC01F
:1031200069A97AA98BA99CA920E03FEF4FE757E452
:103130000E94190318164CF56DA97EA98FA998ADA8
:1031400020E030E040E251E40E941F02DC01CB01AC
:10315000BC01CD010E944900DC01CB0198AB8FA7D7
:103160000FC080E991E09EA78DA78DA59EA5019730
:10317000F1F79EA78DA78FA598A9019798AB8FA768
:103180008FA598A9009769F714C069A97AA98BA996
:103190009CA90E944900DC01CB0198AB8FA78FA5A9
:1031A00098A99CA78BA78BA59CA50197F1F79CA735
:1031B0008BA783E060E040E00E94400D80912C01ED
:1031C000815080932C0180912A0190912B012091B4
:1031D0002C01622F0E94011480912C01882309F098
:1031E0007CC181E00E94CE0781E060E00E945E0920
:1031F0008DEB90E00E949E0886E061E00E945E09EF
:103200008BEC90E00E949E0880E090E0AFEAB4E48E
:103210008FA398A7A9A7BAA76FA178A589A59AA5F2
:1032200020E030E04AE755E40E941F02DC01CB01B8
:103230008BA39CA3ADA3BEA36BA17CA18DA19EA1DA
:1032400020E030E040E85FE30E94790388232CF41B
:1032500081E090E09AA389A33FC06BA17CA18DA1DE
:103260009EA120E03FEF4FE757E40E941903181694
:103270004CF56FA178A589A59AA520E030E040E241
:1032800051E40E941F02DC01CB01BC01CD010E9470
:103290004900DC01CB019AA389A30FC080E991E02A
:1032A00098A38F8F8F8D98A10197F1F798A38F8F97
:1032B00089A19AA101979AA389A389A19AA10097AC
:1032C00069F714C06BA17CA18DA19EA10E94490049
:1032D000DC01CB019AA389A389A19AA19E8F8D8F2E
:1032E0008D8D9E8D0197F1F79E8F8D8F81E00E94CD
:1032F000CE0781ED90E00E949E088EE20E94E907D1
:1033000080E090E0A1EEB3E4898F9A8FAB8FBC8F01
:10331000698D7A8D8B8D9C8D20E030E04AE755E4F5
:103320000E941F02DC01CB018D8B9E8BAF8BB88F6F
:103330006D897E898F89988D20E030E040E85FE3D9
:103340000E94790388232CF481E090E09C8B8B8B86
:103350003FC06D897E898F89988D20E03FEF4FE7D0
:1033600057E40E94190318164CF5698D7A8D8B8DE0
:103370009C8D20E030E040E251E40E941F02DC011D
:10338000CB01BC01CD010E944900DC01CB019C8B2B
:103390008B8B0FC080E991E09A8B898B89899A8900
:1033A0000197F1F79A8B898B8B899C8901979C8B6C
:1033B0008B8B8B899C89009769F714C06D897E89F6
:1033C0008F89988D0E944900DC01CB019C8B8B8BEF
:1033D0008B899C89988B8F878F8598890197F1F7C6
:1033E000988B8F878EE20E94E90780E090E0A1EE43
:1033F000B3E48B879C87AD87BE876B857C858D8585
:103400009E8520E030E04AE755E40E941F02DC017F
:10341000CB018F839887A987BA876F817885898543
:103420009A8520E030E040E85FE30E94790388233A
:103430002CF481E090E09E838D833FC06F8178857E
:1034400089859A8520E03FEF4FE757E40E941903F2
:1034500018164CF56B857C858D859E8520E030E0C7
:1034600040E251E40E941F02DC01CB01BC01CD010E
:103470000E944900DC01CB019E838D830FC080E94F
:1034800091E09C838B838B819C810197F1F79C83D6
:103490008B838D819E8101979E838D838D819E81FB
:1034A000009769F714C06F81788589859A850E9495
:1034B0004900DC01CB019E838D838D819E819A839F
:1034C000898389819A810197F1F79A8389838EE2B2
:1034D0000E94E9070E944D1B05C081E00E94CE07B3
:1034E0000E94D916C05BDF4F0FB6F894DEBF0FBE47
:1034F000CDBFCF91DF911F910F910895DF93CF93AF
:1035000000D0CDB7DEB79E012E5F3F4F87E0B901F7
:103510000E94E2058A810E943213898386E060E07E
:103520000E945E098981882F90E0A0E0B0E0BC0194
:10353000CD010E94D1088981843268F083E061E086
:1035400041E00E94400D8FE060E00E945E098DE442
:103550000E94E9070FC089818E3160F483E061E049
:1035600040E00E94400D8FE060E00E945E0980E232
:103570000E94E9070F900F90CF91DF910895DF939C
:10358000CF9300D0CDB7DEB782E067E041E00E9484
:10359000400D83E066E040E00E94400D9E012E5FFA
:1035A0003F4F80E0B9010E94E2058A81853138F4FD
:1035B00082E06FEF0E94350F87E0898349C08A81DE
:1035C000853150F08A81893238F482E06EEF0E94B2
:1035D000350F86E089833CC08A81893250F08A8128
:1035E0008D3338F482E06CEF0E94350F85E08983DB
:1035F0002FC08A818D3350F08A81873438F482E07D
:1036000068EF0E94350F84E0898322C08A81873465
:1036100050F08A81813538F482E060EF0E94350FE6
:1036200083E0898315C08A81813550F08A818B358A
:1036300038F482E060EE0E94350F82E0898308C092
:103640008A818B3528F082E060E80E94350F19826C
:1036500086E061E00E945E098981882F90E0A0E009
:10366000B0E0BC01CD010E94D1080F900F90CF9126
:10367000DF910895DF93CF93CDB7DEB78FED90E064
:103680000E949E0880E061E00E945E098AEE90E060
:103690000E949E08CF91DF910895DF93CF93CDB71D
:1036A000DEB72E970FB6F894DEBF0FBECDBF81E018
:1036B0000E94CE0784E060E00E945E0981EF90E006
:1036C0000E949E0880E090E8ABEBB4E48B879C8777
:1036D000AD87BE876B857C858D859E8520E030E03B
:1036E0004AE755E40E941F02DC01CB018F839887D3
:1036F000A987BA876F81788589859A8520E030E02F
:1037000040E85FE30E94790388232CF481E090E095
:103710009E838D833FC06F81788589859A8520E05F
:103720003FEF4FE757E40E94190318164CF56B85DD
:103730007C858D859E8520E030E040E251E40E944A
:103740001F02DC01CB01BC01CD010E944900DC015C
:10375000CB019E838D830FC080E991E09C838B8396
:103760008B819C810197F1F79C838B838D819E8156
:1037700001979E838D838D819E81009769F714C088
:103780006F81788589859A850E944900DC01CB018B
:103790009E838D838D819E819A83898389819A817D
:1037A0000197F1F79A83898381E00E94CE0780E038
:1037B00060E00E94ED0E81E060E00E94ED0E82E08C
:1037C00060E00E94ED0E83E060E00E94ED0E80E07C
:1037D0006FEF0E94350F81E060E00E94350F82E0BC
:1037E00060E00E94350F83E060E00E94350F2E9666
:1037F0000FB6F894DEBF0FBECDBFCF91DF91089515
:10380000629FD001739FF001829FE00DF11D649FC4
:10381000E00DF11D929FF00D839FF00D749FF00D50
:10382000659FF00D9927729FB00DE11DF91F639FF1
:10383000B00DE11DF91FBD01CF011124089597FBC3
:10384000092E05260ED057FD04D014D00AD0001C36
:1038500038F450954095309521953F4F4F4F5F4F2D
:103860000895F6F790958095709561957F4F8F4FED
:103870009F4F0895A1E21A2EAA1BBB1BFD010DC08C
:10388000AA1FBB1FEE1FFF1FA217B307E407F50710
:1038900020F0A21BB30BE40BF50B661F771F881FEC
:1038A000991F1A9469F760957095809590959B0182
:1038B000AC01BD01CF0108952F923F924F925F92CC
:1038C0006F927F928F929F92AF92BF92CF92DF9230
:1038D000EF92FF920F931F93CF93DF93CDB7DEB795
:1038E000CA1BDB0B0FB6F894DEBF0FBECDBF099429
:1038F0002A88398848885F846E847D848C849B8480
:10390000AA84B984C884DF80EE80FD800C811B818D
:10391000AA81B981CE0FD11D0FB6F894DEBF0FBEBC
:0A392000CDBFED010895F894FFCF2C
:10392A0020746F2042696E6172793A003062002019
:10393A00746F204865783A0030780057656C636F79
:10394A006D6520486F6D6500456E74657220494447
:10395A003A2000456E7465722050617373776F72F6
:10396A00643A200057726F6E672049442F50617382
:10397A00730054727920616761696E2100556E6126
:10398A006F7574686F72697A6564004C6F67696EE7
:10399A00005368757474696E6720446F776E0054BB
:1039AA00656D703A2020202743004C4544733A2025
:1039BA0000476F6F64204279650000000000000034
:1039CA000000040102032D0405062A0708092F52E4
:1039DA00003D2B04050607020304053F065B4F66FC
:0E39EA006D7D077F6F020200020725010300BA
:00000001FF
